{
  "contractName": "LandRegistry",
  "abi": [
    {
      "anonymous": false,
      "inputs": [
        {
          "indexed": true,
          "internalType": "uint256",
          "name": "landId",
          "type": "uint256"
        },
        {
          "indexed": false,
          "internalType": "string",
          "name": "location",
          "type": "string"
        },
        {
          "indexed": false,
          "internalType": "uint256",
          "name": "area",
          "type": "uint256"
        },
        {
          "indexed": true,
          "internalType": "address",
          "name": "owner",
          "type": "address"
        }
      ],
      "name": "LandRegistered",
      "type": "event"
    },
    {
      "anonymous": false,
      "inputs": [
        {
          "indexed": true,
          "internalType": "uint256",
          "name": "landId",
          "type": "uint256"
        },
        {
          "indexed": true,
          "internalType": "address",
          "name": "oldOwner",
          "type": "address"
        },
        {
          "indexed": true,
          "internalType": "address",
          "name": "newOwner",
          "type": "address"
        }
      ],
      "name": "OwnershipTransferred",
      "type": "event"
    },
    {
      "inputs": [
        {
          "internalType": "uint256",
          "name": "",
          "type": "uint256"
        }
      ],
      "name": "lands",
      "outputs": [
        {
          "internalType": "uint256",
          "name": "id",
          "type": "uint256"
        },
        {
          "internalType": "string",
          "name": "location",
          "type": "string"
        },
        {
          "internalType": "uint256",
          "name": "area",
          "type": "uint256"
        },
        {
          "internalType": "address",
          "name": "owner",
          "type": "address"
        },
        {
          "internalType": "bool",
          "name": "registered",
          "type": "bool"
        }
      ],
      "stateMutability": "view",
      "type": "function",
      "constant": true
    },
    {
      "inputs": [
        {
          "internalType": "uint256",
          "name": "_id",
          "type": "uint256"
        },
        {
          "internalType": "string",
          "name": "_location",
          "type": "string"
        },
        {
          "internalType": "uint256",
          "name": "_area",
          "type": "uint256"
        }
      ],
      "name": "registerLand",
      "outputs": [],
      "stateMutability": "nonpayable",
      "type": "function"
    },
    {
      "inputs": [
        {
          "internalType": "uint256",
          "name": "_id",
          "type": "uint256"
        },
        {
          "internalType": "address",
          "name": "_newOwner",
          "type": "address"
        }
      ],
      "name": "transferOwnership",
      "outputs": [],
      "stateMutability": "nonpayable",
      "type": "function"
    },
    {
      "inputs": [
        {
          "internalType": "uint256",
          "name": "_id",
          "type": "uint256"
        }
      ],
      "name": "getLand",
      "outputs": [
        {
          "internalType": "uint256",
          "name": "id",
          "type": "uint256"
        },
        {
          "internalType": "string",
          "name": "location",
          "type": "string"
        },
        {
          "internalType": "uint256",
          "name": "area",
          "type": "uint256"
        },
        {
          "internalType": "address",
          "name": "owner",
          "type": "address"
        },
        {
          "internalType": "bool",
          "name": "registered",
          "type": "bool"
        }
      ],
      "stateMutability": "view",
      "type": "function",
      "constant": true
    },
    {
      "inputs": [
        {
          "internalType": "uint256",
          "name": "_id",
          "type": "uint256"
        }
      ],
      "name": "isLandRegistered",
      "outputs": [
        {
          "internalType": "bool",
          "name": "",
          "type": "bool"
        }
      ],
      "stateMutability": "view",
      "type": "function",
      "constant": true
    }
  ],
  "bytecode": "0x608060405234801561001057600080fd5b50610e8e806100206000396000f3fe608060405234801561001057600080fd5b50600436106100575760003560e01c806329507f731461005c5780632e8782bc1461007857806398f1c340146100a8578063e261f1e5146100c4578063f02dd53f146100f8575b600080fd5b6100766004803603810190610071919061092e565b61012c565b005b610092600480360381019061008d9190610905565b610362565b60405161009f9190610b5d565b60405180910390f35b6100c260048036038101906100bd919061096a565b61038e565b005b6100de60048036038101906100d99190610905565b610534565b6040516100ef959493929190610c28565b60405180910390f35b610112600480360381019061010d9190610905565b61061f565b604051610123959493929190610c28565b60405180910390f35b600080600084815260200190815260200160002090508060030160149054906101000a900460ff16610193576040517f08c379a000000000000000000000000000000000000000000000000000000000815260040161018a90610ba8565b60405180910390fd5b3373ffffffffffffffffffffffffffffffffffffffff168160030160009054906101000a900473ffffffffffffffffffffffffffffffffffffffff1673ffffffffffffffffffffffffffffffffffffffff1614610225576040517f08c379a000000000000000000000000000000000000000000000000000000000815260040161021c90610c08565b60405180910390fd5b600073ffffffffffffffffffffffffffffffffffffffff168273ffffffffffffffffffffffffffffffffffffffff161415610295576040517f08c379a000000000000000000000000000000000000000000000000000000000815260040161028c90610bc8565b60405180910390fd5b60008160030160009054906101000a900473ffffffffffffffffffffffffffffffffffffffff169050828260030160006101000a81548173ffffffffffffffffffffffffffffffffffffffff021916908373ffffffffffffffffffffffffffffffffffffffff1602179055508273ffffffffffffffffffffffffffffffffffffffff168173ffffffffffffffffffffffffffffffffffffffff16857f16b85f49bf01212961345d3016c9a531894accf62eb7680f2045d79185cc0ec060405160405180910390a450505050565b600080600083815260200190815260200160002060030160149054906101000a900460ff169050919050565b60008084815260200190815260200160002060030160149054906101000a900460ff16156103f1576040517f08c379a00000000000000000000000000000000000000000000000000000000081526004016103e890610be8565b60405180910390fd5b6040518060a001604052808481526020018381526020018281526020013373ffffffffffffffffffffffffffffffffffffffff168152602001600115158152506000808581526020019081526020016000206000820151816000015560208201518160010190805190602001906104699291906107d0565b506040820151816002015560608201518160030160006101000a81548173ffffffffffffffffffffffffffffffffffffffff021916908373ffffffffffffffffffffffffffffffffffffffff16021790555060808201518160030160146101000a81548160ff0219169083151502179055509050503373ffffffffffffffffffffffffffffffffffffffff16837f53a976a9b9d61df3bb2e08e33448938aea67fb03572279eb18ed48cdd6fad04e8484604051610527929190610b78565b60405180910390a3505050565b600060205280600052604060002060009150905080600001549080600101805461055d90610d89565b80601f016020809104026020016040519081016040528092919081815260200182805461058990610d89565b80156105d65780601f106105ab576101008083540402835291602001916105d6565b820191906000526020600020905b8154815290600101906020018083116105b957829003601f168201915b5050505050908060020154908060030160009054906101000a900473ffffffffffffffffffffffffffffffffffffffff16908060030160149054906101000a900460ff16905085565b600060606000806000806000808881526020019081526020016000206040518060a00160405290816000820154815260200160018201805461066090610d89565b80601f016020809104026020016040519081016040528092919081815260200182805461068c90610d89565b80156106d95780601f106106ae576101008083540402835291602001916106d9565b820191906000526020600020905b8154815290600101906020018083116106bc57829003601f168201915b50505050508152602001600282015481526020016003820160009054906101000a900473ffffffffffffffffffffffffffffffffffffffff1673ffffffffffffffffffffffffffffffffffffffff1673ffffffffffffffffffffffffffffffffffffffff1681526020016003820160149054906101000a900460ff161515151581525050905080608001516107a3576040517f08c379a000000000000000000000000000000000000000000000000000000000815260040161079a90610ba8565b60405180910390fd5b80600001518160200151826040015183606001518460800151955095509550955095505091939590929450565b8280546107dc90610d89565b90600052602060002090601f0160209004810192826107fe5760008555610845565b82601f1061081757805160ff1916838001178555610845565b82800160010185558215610845579182015b82811115610844578251825591602001919060010190610829565b5b5090506108529190610856565b5090565b5b8082111561086f576000816000905550600101610857565b5090565b600061088661088184610cb3565b610c82565b90508281526020810184848401111561089e57600080fd5b6108a9848285610d47565b509392505050565b6000813590506108c081610e2a565b92915050565b600082601f8301126108d757600080fd5b81356108e7848260208601610873565b91505092915050565b6000813590506108ff81610e41565b92915050565b60006020828403121561091757600080fd5b6000610925848285016108f0565b91505092915050565b6000806040838503121561094157600080fd5b600061094f858286016108f0565b9250506020610960858286016108b1565b9150509250929050565b60008060006060848603121561097f57600080fd5b600061098d868287016108f0565b935050602084013567ffffffffffffffff8111156109aa57600080fd5b6109b6868287016108c6565b92505060406109c7868287016108f0565b9150509250925092565b6109da81610cff565b82525050565b6109e981610d11565b82525050565b60006109fa82610ce3565b610a048185610cee565b9350610a14818560208601610d56565b610a1d81610e19565b840191505092915050565b6000610a35601383610cee565b91507f4c616e64206e6f742072656769737465726564000000000000000000000000006000830152602082019050919050565b6000610a75600f83610cee565b91507f496e76616c6964206164647265737300000000000000000000000000000000006000830152602082019050919050565b6000610ab5601783610cee565b91507f4c616e6420616c726561647920726567697374657265640000000000000000006000830152602082019050919050565b6000610af5602183610cee565b91507f4f6e6c79206f776e65722063616e207472616e73666572206f776e657273686960008301527f70000000000000000000000000000000000000000000000000000000000000006020830152604082019050919050565b610b5781610d3d565b82525050565b6000602082019050610b7260008301846109e0565b92915050565b60006040820190508181036000830152610b9281856109ef565b9050610ba16020830184610b4e565b9392505050565b60006020820190508181036000830152610bc181610a28565b9050919050565b60006020820190508181036000830152610be181610a68565b9050919050565b60006020820190508181036000830152610c0181610aa8565b9050919050565b60006020820190508181036000830152610c2181610ae8565b9050919050565b600060a082019050610c3d6000830188610b4e565b8181036020830152610c4f81876109ef565b9050610c5e6040830186610b4e565b610c6b60608301856109d1565b610c7860808301846109e0565b9695505050505050565b6000604051905081810181811067ffffffffffffffff82111715610ca957610ca8610dea565b5b8060405250919050565b600067ffffffffffffffff821115610cce57610ccd610dea565b5b601f19601f8301169050602081019050919050565b600081519050919050565b600082825260208201905092915050565b6000610d0a82610d1d565b9050919050565b60008115159050919050565b600073ffffffffffffffffffffffffffffffffffffffff82169050919050565b6000819050919050565b82818337600083830152505050565b60005b83811015610d74578082015181840152602081019050610d59565b83811115610d83576000848401525b50505050565b60006002820490506001821680610da157607f821691505b60208210811415610db557610db4610dbb565b5b50919050565b7f4e487b7100000000000000000000000000000000000000000000000000000000600052602260045260246000fd5b7f4e487b7100000000000000000000000000000000000000000000000000000000600052604160045260246000fd5b6000601f19601f8301169050919050565b610e3381610cff565b8114610e3e57600080fd5b50565b610e4a81610d3d565b8114610e5557600080fd5b5056fea26469706673582212207703f44bf79eee026be226101bcbd6ab5b2ae02c7d747f493cb6c13be5848f4e64736f6c63430008000033",
  "immutableReferences": {},
  "source": "// SPDX-License-Identifier:MIT\r\npragma solidity >= 0.4.22 <0.9.0;\r\ncontract LandRegistry{\r\n    struct Land {\r\n        uint256 id;\r\n        string location;\r\n        uint256 area;\r\n        address owner;\r\n        bool registered;\r\n    }\r\n\r\n    mapping(uint256 => Land) public lands;\r\n\r\n    event LandRegistered(uint256 indexed landId, string location, uint256 area, address indexed owner);\r\n    event OwnershipTransferred(uint256 indexed landId, address indexed oldOwner, address indexed newOwner);\r\n    \r\n    \r\n    function registerLand(uint256 _id, string memory _location, uint256 _area) public {\r\n        require(!lands[_id].registered, \"Land already registered\");\r\n\r\n        lands [_id] = Land ({\r\n            id : _id,\r\n            location : _location,\r\n            area : _area,\r\n            owner : msg.sender,\r\n            registered : true\r\n        });\r\n\r\n        emit LandRegistered(_id, _location, _area, msg.sender);\r\n\r\n    }\r\n\r\n    function transferOwnership(uint256 _id, address _newOwner) public {\r\n        Land storage land = lands[_id];\r\n        require(land.registered,\"Land not registered\");\r\n        require(land.owner == msg.sender,\"Only owner can transfer ownership\");\r\n        require(_newOwner != address(0),\"Invalid address\");\r\n\r\n        address oldOwner = land.owner;\r\n        land.owner = _newOwner;\r\n\r\n        emit OwnershipTransferred(_id, oldOwner, _newOwner);\r\n    }\r\n\r\n    function getLand(uint256 _id) public view returns (uint256 id, string memory location, uint256 area, address owner, bool registered){\r\n        Land memory land = lands[_id];\r\n        require(land.registered, \"Land not registered\");\r\n\r\n        return(land.id, land.location, land.area, land.owner, land.registered);\r\n    }\r\n\r\n\r\n    function isLandRegistered(uint256 _id) public view returns(bool){\r\n        return lands[_id].registered;\r\n    }\r\n    \r\n}",
  "sourcePath": "C:\\Users\\chinm\\OneDrive\\Desktop\\react projects\\BC blockchain\\Land Registry\\contracts\\LandRegistry.sol",
  "compiler": {
    "name": "solc",
    "version": "0.8.0+commit.c7dfd78e.Emscripten.clang"
  },
  "schemaVersion": "3.4.16",
  "updatedAt": "2025-02-05T15:42:16.568Z",
  "networkType": "ethereum",
  "devdoc": {
    "kind": "dev",
    "methods": {},
    "version": 1
  },
  "userdoc": {
    "kind": "user",
    "methods": {},
    "version": 1
  }
}